:10000000D328FF3FFF3FFF3FCF00030E8301950042
:10001000040894000A0896008A018C0A03198D0AC4
:100020006030810020308B0016088A00140884009C
:10003000150E8300CF0E4F0E090003138312C80163
:10004000C9011030CC00410DC80DC90D4408C802CB
:100050004508031C450FC902031835284408C80782
:1000600045080318450FC9070310C00DC10DCC0B7F
:1000700023280800031383121E088900831688139F
:10008000081483120808C00008008030031383128C
:10009000C00080300F064002031D50280E08003CAF
:1000A000031889283C30C4000030C5000E08C00089
:1000B0000F08C1001D204008A0003C30C4000030E3
:1000C000C5000E08C0000F08C1001D204808C00070
:1000D0004908C1004008A1004108A2000A30C4003C
:1000E0000030C5002108C0002208C1001D204008C2
:1000F0009F000A30C4000030C5002108C00022085B
:10010000C1001D204808C0004908C10040089E00E9
:100110008C28A0019F019E01A8281E08860010308F
:100120000607C000110840078600B4281F08860093
:1001300020300607C000110840078600B4282008B8
:10014000860040300607C000110840078600B4282A
:100150001008003A03198D281008013A031996284F
:100160001008023A03199F28900A03301002031C5A
:10017000BA2890010800000003138316881CC228C7
:100180000000BC281E08831289001F0888008316FF
:10019000881308158B1355308900AA3089008814FC
:1001A0008B17081108000313831286018501FF30A5
:1001B000831685008601843081008C018D016030BA
:1001C0008312810001309E003A2040089200930182
:1001D0000230CC00FF30CB00FF30CA00CC0BF1283E
:1001E000F828CB0BF428F728CA0BF428F128EE28BE
:1001F0004630CB00FF30CA00CB0BFF280229CA0BC8
:10020000FF28FC28CF30CA00CA0B042900000330A5
:100210009E003A204008C100C00140081207C200F9
:1002200013080318013F4107C30042089200430826
:10023000930002304302031D1F2949304202031C70
:100240002529493092000230930012088E001308CD
:100250008F009101BB309C009D0103138312452048
:1002600001300505C2004208003A031D94290130FF
:100270000505C2004208003A03193729A0308B0057
:1002800012088E0013088F008030C00080300F06E7
:100290004002031D4D290E08003C03188E298030B2
:1002A000910045201D080D02031D58291C080C0251
:1002B000031C6E2901308E02031C8F038C018D01FB
:1002C00080300F06C00080304002031D692978305D
:1002D0000E0203186E29B4309C009D010130050503
:1002E000C2004208003A031D8D2905301202C200E7
:1002F0000030031C013F1302C30043080F02031D1B
:10030000832942080E0203188D2901300505C20019
:100310004208003A031985298E2944298B011208C5
:100320008E0013088F009101003085180130C20043
:100330004208003A031DDA2A97010030851801307F
:10034000C2004208003A03199D2912088E001308C2
:100350008F00031383121708003A031DDA2A452081
:100360009A0101309B00003005190130C20042089B
:10037000003A031D272A1B081A07C20042089A00E8
:100380000A304202031CC62905309B003C301A0289
:10039000031CCC291E309B009801990100301902E2
:1003A000031DD429323018020318E92945200230F0
:1003B000CB00FF30CA00CB0BDE29E129CA0BDE29B6
:1003C000DB294A30CA00CA0BE329980A0319990AA3
:1003D000CE291B080E07C2000F080318013FC300F7
:1003E00000309B1BFF30C30780304306C0008030C5
:1003F000023A4002031DFE29573042020318052A23
:100400001B088E0703188F0A092A01308E0000305E
:100410008F009801990100301902031D112A323012
:1004200018020318262A45200230CB00FF30CA00EC
:10043000CB0B1B2A1E2ACA0B1B2A182A4A30CA00B9
:10044000CA0B202A980A0319990A0B2AB3290030EB
:1004500085190130C2004208003A031D8F2A1B088B
:100460001A07C20042089A000A304202031C3A2AC4
:1004700005309B003C301A02031C402A1E309B00B2
:100480009801990100301902031D482A32301802E0
:1004900003185D2A45200230CB00FF30CA00CB0B89
:1004A000522A552ACA0B522A4F2A4A30CA00CA0B6E
:1004B000572A980A0319990A422A8030C0008030CE
:1004C0000F064002031D662A0E08013C03186D2A20
:1004D0001B088E02031C8F03712A57308E000230D6
:1004E0008F009801990100301902031D792A3230DA
:1004F000180203188E2A45200230CB00FF30CA00B4
:10050000CB0B832A862ACA0B832A802A4A30CA0048
:10051000CA0B882A980A0319990A732A272A0030D5
:1005200085180130C2004208003A031DD72A013065
:100530009700003085180130C2004208003A0319C4
:10054000992A0E0892000F08930001309E00FF3098
:100550000E059F00BB200230CC00FF30CB00FF30E7
:10056000CA00CC0BB42ABB2ACB0BB72ABA2ACA0BB7
:10057000B72AB42AB12A4630CB00FF30CA00CB0BD1
:10058000C22AC52ACA0BC22ABF2ACF30CA00CA0B48
:10059000C72A000003309E00FF30C400C5011208C6
:1005A000C0001308C1001D2040089F00BB2003139A
:1005B0008316A92903138316031383162D29DF2A13
:02400E00F23F7F
:00000001FF
